{
  "address": "0xF8b41Fbd3bEe5b644E7DB963fb6a1C4cBd271f43",
  "abi": [
    {
      "inputs": [],
      "stateMutability": "nonpayable",
      "type": "constructor"
    },
    {
      "anonymous": false,
      "inputs": [
        {
          "indexed": true,
          "internalType": "address",
          "name": "previousOwner",
          "type": "address"
        },
        {
          "indexed": true,
          "internalType": "address",
          "name": "newOwner",
          "type": "address"
        }
      ],
      "name": "OwnershipTransferred",
      "type": "event"
    },
    {
      "inputs": [
        {
          "internalType": "string",
          "name": "s1",
          "type": "string"
        },
        {
          "internalType": "string",
          "name": "s2",
          "type": "string"
        }
      ],
      "name": "compareTwoStrings",
      "outputs": [
        {
          "internalType": "bool",
          "name": "",
          "type": "bool"
        }
      ],
      "stateMutability": "pure",
      "type": "function"
    },
    {
      "inputs": [
        {
          "internalType": "address",
          "name": "recipient",
          "type": "address"
        },
        {
          "internalType": "string",
          "name": "name",
          "type": "string"
        },
        {
          "internalType": "string",
          "name": "dateOfDeath",
          "type": "string"
        },
        {
          "internalType": "string",
          "name": "timeOfDeath",
          "type": "string"
        },
        {
          "internalType": "string",
          "name": "placeOfDeath",
          "type": "string"
        },
        {
          "internalType": "string",
          "name": "city",
          "type": "string"
        },
        {
          "internalType": "string",
          "name": "postalCode",
          "type": "string"
        },
        {
          "internalType": "string",
          "name": "country",
          "type": "string"
        },
        {
          "internalType": "string",
          "name": "province",
          "type": "string"
        },
        {
          "internalType": "string",
          "name": "medicalCauseOfDeath",
          "type": "string"
        },
        {
          "internalType": "string",
          "name": "meansOfDeath",
          "type": "string"
        }
      ],
      "name": "createReport",
      "outputs": [],
      "stateMutability": "nonpayable",
      "type": "function"
    },
    {
      "inputs": [
        {
          "internalType": "string",
          "name": "name",
          "type": "string"
        },
        {
          "internalType": "string",
          "name": "postalCode",
          "type": "string"
        },
        {
          "internalType": "string",
          "name": "dateOfDeath",
          "type": "string"
        }
      ],
      "name": "deleteReport",
      "outputs": [],
      "stateMutability": "nonpayable",
      "type": "function"
    },
    {
      "inputs": [],
      "name": "enter",
      "outputs": [],
      "stateMutability": "payable",
      "type": "function"
    },
    {
      "inputs": [],
      "name": "getPlayers",
      "outputs": [
        {
          "internalType": "address[]",
          "name": "",
          "type": "address[]"
        }
      ],
      "stateMutability": "view",
      "type": "function"
    },
    {
      "inputs": [],
      "name": "getReports",
      "outputs": [
        {
          "components": [
            {
              "internalType": "address",
              "name": "recipient",
              "type": "address"
            },
            {
              "internalType": "string",
              "name": "name",
              "type": "string"
            },
            {
              "internalType": "string",
              "name": "dateOfDeath",
              "type": "string"
            },
            {
              "internalType": "string",
              "name": "timeOfDeath",
              "type": "string"
            },
            {
              "internalType": "string",
              "name": "placeOfDeath",
              "type": "string"
            },
            {
              "internalType": "string",
              "name": "city",
              "type": "string"
            },
            {
              "internalType": "string",
              "name": "postalCode",
              "type": "string"
            },
            {
              "internalType": "string",
              "name": "country",
              "type": "string"
            },
            {
              "internalType": "string",
              "name": "province",
              "type": "string"
            },
            {
              "internalType": "string",
              "name": "medicalCauseOfDeath",
              "type": "string"
            },
            {
              "internalType": "string",
              "name": "meansOfDeath",
              "type": "string"
            }
          ],
          "internalType": "struct Report.DeathReport[]",
          "name": "",
          "type": "tuple[]"
        }
      ],
      "stateMutability": "view",
      "type": "function"
    },
    {
      "inputs": [],
      "name": "getReportsCount",
      "outputs": [
        {
          "internalType": "uint256",
          "name": "",
          "type": "uint256"
        }
      ],
      "stateMutability": "view",
      "type": "function"
    },
    {
      "inputs": [],
      "name": "manager",
      "outputs": [
        {
          "internalType": "address",
          "name": "",
          "type": "address"
        }
      ],
      "stateMutability": "view",
      "type": "function"
    },
    {
      "inputs": [],
      "name": "owner",
      "outputs": [
        {
          "internalType": "address",
          "name": "",
          "type": "address"
        }
      ],
      "stateMutability": "view",
      "type": "function"
    },
    {
      "inputs": [
        {
          "internalType": "uint256",
          "name": "",
          "type": "uint256"
        }
      ],
      "name": "players",
      "outputs": [
        {
          "internalType": "address",
          "name": "",
          "type": "address"
        }
      ],
      "stateMutability": "view",
      "type": "function"
    },
    {
      "inputs": [],
      "name": "renounceOwnership",
      "outputs": [],
      "stateMutability": "nonpayable",
      "type": "function"
    },
    {
      "inputs": [
        {
          "internalType": "uint256",
          "name": "",
          "type": "uint256"
        }
      ],
      "name": "reports",
      "outputs": [
        {
          "internalType": "address",
          "name": "recipient",
          "type": "address"
        },
        {
          "internalType": "string",
          "name": "name",
          "type": "string"
        },
        {
          "internalType": "string",
          "name": "dateOfDeath",
          "type": "string"
        },
        {
          "internalType": "string",
          "name": "timeOfDeath",
          "type": "string"
        },
        {
          "internalType": "string",
          "name": "placeOfDeath",
          "type": "string"
        },
        {
          "internalType": "string",
          "name": "city",
          "type": "string"
        },
        {
          "internalType": "string",
          "name": "postalCode",
          "type": "string"
        },
        {
          "internalType": "string",
          "name": "country",
          "type": "string"
        },
        {
          "internalType": "string",
          "name": "province",
          "type": "string"
        },
        {
          "internalType": "string",
          "name": "medicalCauseOfDeath",
          "type": "string"
        },
        {
          "internalType": "string",
          "name": "meansOfDeath",
          "type": "string"
        }
      ],
      "stateMutability": "view",
      "type": "function"
    },
    {
      "inputs": [
        {
          "internalType": "address",
          "name": "newOwner",
          "type": "address"
        }
      ],
      "name": "transferOwnership",
      "outputs": [],
      "stateMutability": "nonpayable",
      "type": "function"
    }
  ],
  "transactionHash": "0x20280732a87ebf5f8d1250f46c6b73977c6cf6a9450595477caedce4836ac565",
  "args": [],
  "numDeployments": 1,
  "solcInputHash": "86af4edc71964741e230cb2ea00a8edf",
  "bytecode": "0x60806040523480156200001157600080fd5b5062000032620000266200007960201b60201c565b6200008160201b60201c565b33600260006101000a81548173ffffffffffffffffffffffffffffffffffffffff021916908373ffffffffffffffffffffffffffffffffffffffff16021790555062000145565b600033905090565b60008060009054906101000a900473ffffffffffffffffffffffffffffffffffffffff169050816000806101000a81548173ffffffffffffffffffffffffffffffffffffffff021916908373ffffffffffffffffffffffffffffffffffffffff1602179055508173ffffffffffffffffffffffffffffffffffffffff168173ffffffffffffffffffffffffffffffffffffffff167f8be0079c531659141344cd1fd0a4f28419497f9722a3daafe3b4186f6b6457e060405160405180910390a35050565b612c2b80620001556000396000f3fe6080604052600436106100c25760003560e01c8063bb08f1c91161007f578063e97dcb6211610059578063e97dcb621461024e578063ef01a9a814610258578063f2fde38b14610295578063f71d96cb146102be576100c2565b8063bb08f1c9146101b5578063c942adf7146101de578063db9585ae14610225576100c2565b806327d33f72146100c7578063481c6a75146100f2578063715018a61461011d5780638b5b9ccc146101345780638da5cb5b1461015f578063a3c86daf1461018a575b600080fd5b3480156100d357600080fd5b506100dc6102fb565b6040516100e99190611e4a565b60405180910390f35b3480156100fe57600080fd5b50610107610308565b6040516101149190611ea6565b60405180910390f35b34801561012957600080fd5b5061013261032e565b005b34801561014057600080fd5b50610149610342565b6040516101569190611f7f565b60405180910390f35b34801561016b57600080fd5b506101746103d0565b6040516101819190611ea6565b60405180910390f35b34801561019657600080fd5b5061019f6103f9565b6040516101ac919061222a565b60405180910390f35b3480156101c157600080fd5b506101dc60048036038101906101d79190612395565b610a63565b005b3480156101ea57600080fd5b5061020560048036038101906102009190612468565b6111f3565b60405161021c9b9a999897969594939291906124df565b60405180910390f35b34801561023157600080fd5b5061024c600480360381019061024791906125fc565b6117cd565b005b6102566119e3565b005b34801561026457600080fd5b5061027f600480360381019061027a9190612808565b611a5b565b60405161028c919061289b565b60405180910390f35b3480156102a157600080fd5b506102bc60048036038101906102b791906128b6565b611ab4565b005b3480156102ca57600080fd5b506102e560048036038101906102e09190612468565b611b38565b6040516102f29190611ea6565b60405180910390f35b6000600180549050905090565b600260009054906101000a900473ffffffffffffffffffffffffffffffffffffffff1681565b610336611b77565b6103406000611bf5565b565b606060038054806020026020016040519081016040528092919081815260200182805480156103c657602002820191906000526020600020905b8160009054906101000a900473ffffffffffffffffffffffffffffffffffffffff1673ffffffffffffffffffffffffffffffffffffffff168152602001906001019080831161037c575b5050505050905090565b60008060009054906101000a900473ffffffffffffffffffffffffffffffffffffffff16905090565b60606001805480602002602001604051908101604052809291908181526020016000905b82821015610a5a57838290600052602060002090600b0201604051806101600160405290816000820160009054906101000a900473ffffffffffffffffffffffffffffffffffffffff1673ffffffffffffffffffffffffffffffffffffffff1673ffffffffffffffffffffffffffffffffffffffff1681526020016001820180546104a790612912565b80601f01602080910402602001604051908101604052809291908181526020018280546104d390612912565b80156105205780601f106104f557610100808354040283529160200191610520565b820191906000526020600020905b81548152906001019060200180831161050357829003601f168201915b5050505050815260200160028201805461053990612912565b80601f016020809104026020016040519081016040528092919081815260200182805461056590612912565b80156105b25780601f10610587576101008083540402835291602001916105b2565b820191906000526020600020905b81548152906001019060200180831161059557829003601f168201915b505050505081526020016003820180546105cb90612912565b80601f01602080910402602001604051908101604052809291908181526020018280546105f790612912565b80156106445780601f1061061957610100808354040283529160200191610644565b820191906000526020600020905b81548152906001019060200180831161062757829003601f168201915b5050505050815260200160048201805461065d90612912565b80601f016020809104026020016040519081016040528092919081815260200182805461068990612912565b80156106d65780601f106106ab576101008083540402835291602001916106d6565b820191906000526020600020905b8154815290600101906020018083116106b957829003601f168201915b505050505081526020016005820180546106ef90612912565b80601f016020809104026020016040519081016040528092919081815260200182805461071b90612912565b80156107685780601f1061073d57610100808354040283529160200191610768565b820191906000526020600020905b81548152906001019060200180831161074b57829003601f168201915b5050505050815260200160068201805461078190612912565b80601f01602080910402602001604051908101604052809291908181526020018280546107ad90612912565b80156107fa5780601f106107cf576101008083540402835291602001916107fa565b820191906000526020600020905b8154815290600101906020018083116107dd57829003601f168201915b5050505050815260200160078201805461081390612912565b80601f016020809104026020016040519081016040528092919081815260200182805461083f90612912565b801561088c5780601f106108615761010080835404028352916020019161088c565b820191906000526020600020905b81548152906001019060200180831161086f57829003601f168201915b505050505081526020016008820180546108a590612912565b80601f01602080910402602001604051908101604052809291908181526020018280546108d190612912565b801561091e5780601f106108f35761010080835404028352916020019161091e565b820191906000526020600020905b81548152906001019060200180831161090157829003601f168201915b5050505050815260200160098201805461093790612912565b80601f016020809104026020016040519081016040528092919081815260200182805461096390612912565b80156109b05780601f10610985576101008083540402835291602001916109b0565b820191906000526020600020905b81548152906001019060200180831161099357829003601f168201915b50505050508152602001600a820180546109c990612912565b80601f01602080910402602001604051908101604052809291908181526020018280546109f590612912565b8015610a425780601f10610a1757610100808354040283529160200191610a42565b820191906000526020600020905b815481529060010190602001808311610a2557829003601f168201915b5050505050815250508152602001906001019061041d565b50505050905090565b610a6b611b77565b600080600180549050905060005b600182610a869190612973565b8110156110f957600115158315151415610c985760018082610aa891906129a7565b81548110610ab957610ab86129fd565b5b90600052602060002090600b020160018281548110610adb57610ada6129fd565b5b90600052602060002090600b02016000820160009054906101000a900473ffffffffffffffffffffffffffffffffffffffff168160000160006101000a81548173ffffffffffffffffffffffffffffffffffffffff021916908373ffffffffffffffffffffffffffffffffffffffff1602179055506001820181600101908054610b6490612912565b610b6f929190611cc1565b506002820181600201908054610b8490612912565b610b8f929190611cc1565b506003820181600301908054610ba490612912565b610baf929190611cc1565b506004820181600401908054610bc490612912565b610bcf929190611cc1565b506005820181600501908054610be490612912565b610bef929190611cc1565b506006820181600601908054610c0490612912565b610c0f929190611cc1565b506007820181600701908054610c2490612912565b610c2f929190611cc1565b506008820181600801908054610c4490612912565b610c4f929190611cc1565b506009820181600901908054610c6490612912565b610c6f929190611cc1565b50600a820181600a01908054610c8490612912565b610c8f929190611cc1565b509050506110e6565b60011515610d5360018381548110610cb357610cb26129fd565b5b90600052602060002090600b02016001018054610ccf90612912565b80601f0160208091040260200160405190810160405280929190818152602001828054610cfb90612912565b8015610d485780601f10610d1d57610100808354040283529160200191610d48565b820191906000526020600020905b815481529060010190602001808311610d2b57829003601f168201915b505050505088611a5b565b151514156110e55760011515610e1660018381548110610d7657610d756129fd565b5b90600052602060002090600b02016006018054610d9290612912565b80601f0160208091040260200160405190810160405280929190818152602001828054610dbe90612912565b8015610e0b5780601f10610de057610100808354040283529160200191610e0b565b820191906000526020600020905b815481529060010190602001808311610dee57829003601f168201915b505050505087611a5b565b151514156110e45760011515610ed960018381548110610e3957610e386129fd565b5b90600052602060002090600b02016002018054610e5590612912565b80601f0160208091040260200160405190810160405280929190818152602001828054610e8190612912565b8015610ece5780601f10610ea357610100808354040283529160200191610ece565b820191906000526020600020905b815481529060010190602001808311610eb157829003601f168201915b505050505086611a5b565b151514156110e3576001925060018082610ef391906129a7565b81548110610f0457610f036129fd565b5b90600052602060002090600b020160018281548110610f2657610f256129fd565b5b90600052602060002090600b02016000820160009054906101000a900473ffffffffffffffffffffffffffffffffffffffff168160000160006101000a81548173ffffffffffffffffffffffffffffffffffffffff021916908373ffffffffffffffffffffffffffffffffffffffff1602179055506001820181600101908054610faf90612912565b610fba929190611cc1565b506002820181600201908054610fcf90612912565b610fda929190611cc1565b506003820181600301908054610fef90612912565b610ffa929190611cc1565b50600482018160040190805461100f90612912565b61101a929190611cc1565b50600582018160050190805461102f90612912565b61103a929190611cc1565b50600682018160060190805461104f90612912565b61105a929190611cc1565b50600782018160070190805461106f90612912565b61107a929190611cc1565b50600882018160080190805461108f90612912565b61109a929190611cc1565b5060098201816009019080546110af90612912565b6110ba929190611cc1565b50600a820181600a019080546110cf90612912565b6110da929190611cc1565b509050506110e6565b5b5b5b80806110f190612a2c565b915050610a79565b50600180548061110c5761110b612a75565b5b60019003818190600052602060002090600b0201600080820160006101000a81549073ffffffffffffffffffffffffffffffffffffffff02191690556001820160006111589190611d4e565b6002820160006111689190611d4e565b6003820160006111789190611d4e565b6004820160006111889190611d4e565b6005820160006111989190611d4e565b6006820160006111a89190611d4e565b6007820160006111b89190611d4e565b6008820160006111c89190611d4e565b6009820160006111d89190611d4e565b600a820160006111e89190611d4e565b505090555050505050565b6001818154811061120357600080fd5b90600052602060002090600b02016000915090508060000160009054906101000a900473ffffffffffffffffffffffffffffffffffffffff169080600101805461124c90612912565b80601f016020809104026020016040519081016040528092919081815260200182805461127890612912565b80156112c55780601f1061129a576101008083540402835291602001916112c5565b820191906000526020600020905b8154815290600101906020018083116112a857829003601f168201915b5050505050908060020180546112da90612912565b80601f016020809104026020016040519081016040528092919081815260200182805461130690612912565b80156113535780601f1061132857610100808354040283529160200191611353565b820191906000526020600020905b81548152906001019060200180831161133657829003601f168201915b50505050509080600301805461136890612912565b80601f016020809104026020016040519081016040528092919081815260200182805461139490612912565b80156113e15780601f106113b6576101008083540402835291602001916113e1565b820191906000526020600020905b8154815290600101906020018083116113c457829003601f168201915b5050505050908060040180546113f690612912565b80601f016020809104026020016040519081016040528092919081815260200182805461142290612912565b801561146f5780601f106114445761010080835404028352916020019161146f565b820191906000526020600020905b81548152906001019060200180831161145257829003601f168201915b50505050509080600501805461148490612912565b80601f01602080910402602001604051908101604052809291908181526020018280546114b090612912565b80156114fd5780601f106114d2576101008083540402835291602001916114fd565b820191906000526020600020905b8154815290600101906020018083116114e057829003601f168201915b50505050509080600601805461151290612912565b80601f016020809104026020016040519081016040528092919081815260200182805461153e90612912565b801561158b5780601f106115605761010080835404028352916020019161158b565b820191906000526020600020905b81548152906001019060200180831161156e57829003601f168201915b5050505050908060070180546115a090612912565b80601f01602080910402602001604051908101604052809291908181526020018280546115cc90612912565b80156116195780601f106115ee57610100808354040283529160200191611619565b820191906000526020600020905b8154815290600101906020018083116115fc57829003601f168201915b50505050509080600801805461162e90612912565b80601f016020809104026020016040519081016040528092919081815260200182805461165a90612912565b80156116a75780601f1061167c576101008083540402835291602001916116a7565b820191906000526020600020905b81548152906001019060200180831161168a57829003601f168201915b5050505050908060090180546116bc90612912565b80601f01602080910402602001604051908101604052809291908181526020018280546116e890612912565b80156117355780601f1061170a57610100808354040283529160200191611735565b820191906000526020600020905b81548152906001019060200180831161171857829003601f168201915b50505050509080600a01805461174a90612912565b80601f016020809104026020016040519081016040528092919081815260200182805461177690612912565b80156117c35780601f10611798576101008083540402835291602001916117c3565b820191906000526020600020905b8154815290600101906020018083116117a657829003601f168201915b505050505090508b565b6117d5611b77565b60006040518061016001604052808d73ffffffffffffffffffffffffffffffffffffffff1681526020018c81526020018b81526020018a815260200189815260200188815260200187815260200186815260200185815260200184815260200183815250905060018190806001815401808255809150506001900390600052602060002090600b020160009091909190915060008201518160000160006101000a81548173ffffffffffffffffffffffffffffffffffffffff021916908373ffffffffffffffffffffffffffffffffffffffff16021790555060208201518160010190805190602001906118ca929190611d8e565b5060408201518160020190805190602001906118e7929190611d8e565b506060820151816003019080519060200190611904929190611d8e565b506080820151816004019080519060200190611921929190611d8e565b5060a082015181600501908051906020019061193e929190611d8e565b5060c082015181600601908051906020019061195b929190611d8e565b5060e0820151816007019080519060200190611978929190611d8e565b50610100820151816008019080519060200190611996929190611d8e565b506101208201518160090190805190602001906119b4929190611d8e565b5061014082015181600a0190805190602001906119d2929190611d8e565b505050505050505050505050505050565b662386f26fc1000034116119f657600080fd5b6003339080600181540180825580915050600190039060005260206000200160009091909190916101000a81548173ffffffffffffffffffffffffffffffffffffffff021916908373ffffffffffffffffffffffffffffffffffffffff160217905550565b600081604051602001611a6e9190612ae0565b6040516020818303038152906040528051906020012083604051602001611a959190612ae0565b6040516020818303038152906040528051906020012014905092915050565b611abc611b77565b600073ffffffffffffffffffffffffffffffffffffffff168173ffffffffffffffffffffffffffffffffffffffff161415611b2c576040517f08c379a0000000000000000000000000000000000000000000000000000000008152600401611b2390612b69565b60405180910390fd5b611b3581611bf5565b50565b60038181548110611b4857600080fd5b906000526020600020016000915054906101000a900473ffffffffffffffffffffffffffffffffffffffff1681565b611b7f611cb9565b73ffffffffffffffffffffffffffffffffffffffff16611b9d6103d0565b73ffffffffffffffffffffffffffffffffffffffff1614611bf3576040517f08c379a0000000000000000000000000000000000000000000000000000000008152600401611bea90612bd5565b60405180910390fd5b565b60008060009054906101000a900473ffffffffffffffffffffffffffffffffffffffff169050816000806101000a81548173ffffffffffffffffffffffffffffffffffffffff021916908373ffffffffffffffffffffffffffffffffffffffff1602179055508173ffffffffffffffffffffffffffffffffffffffff168173ffffffffffffffffffffffffffffffffffffffff167f8be0079c531659141344cd1fd0a4f28419497f9722a3daafe3b4186f6b6457e060405160405180910390a35050565b600033905090565b828054611ccd90612912565b90600052602060002090601f016020900481019282611cef5760008555611d3d565b82601f10611d005780548555611d3d565b82800160010185558215611d3d57600052602060002091601f016020900482015b82811115611d3c578254825591600101919060010190611d21565b5b509050611d4a9190611e14565b5090565b508054611d5a90612912565b6000825580601f10611d6c5750611d8b565b601f016020900490600052602060002090810190611d8a9190611e14565b5b50565b828054611d9a90612912565b90600052602060002090601f016020900481019282611dbc5760008555611e03565b82601f10611dd557805160ff1916838001178555611e03565b82800160010185558215611e03579182015b82811115611e02578251825591602001919060010190611de7565b5b509050611e109190611e14565b5090565b5b80821115611e2d576000816000905550600101611e15565b5090565b6000819050919050565b611e4481611e31565b82525050565b6000602082019050611e5f6000830184611e3b565b92915050565b600073ffffffffffffffffffffffffffffffffffffffff82169050919050565b6000611e9082611e65565b9050919050565b611ea081611e85565b82525050565b6000602082019050611ebb6000830184611e97565b92915050565b600081519050919050565b600082825260208201905092915050565b6000819050602082019050919050565b611ef681611e85565b82525050565b6000611f088383611eed565b60208301905092915050565b6000602082019050919050565b6000611f2c82611ec1565b611f368185611ecc565b9350611f4183611edd565b8060005b83811015611f72578151611f598882611efc565b9750611f6483611f14565b925050600181019050611f45565b5085935050505092915050565b60006020820190508181036000830152611f998184611f21565b905092915050565b600081519050919050565b600082825260208201905092915050565b6000819050602082019050919050565b600081519050919050565b600082825260208201905092915050565b60005b83811015612007578082015181840152602081019050611fec565b83811115612016576000848401525b50505050565b6000601f19601f8301169050919050565b600061203882611fcd565b6120428185611fd8565b9350612052818560208601611fe9565b61205b8161201c565b840191505092915050565b60006101608301600083015161207f6000860182611eed565b5060208301518482036020860152612097828261202d565b915050604083015184820360408601526120b1828261202d565b915050606083015184820360608601526120cb828261202d565b915050608083015184820360808601526120e5828261202d565b91505060a083015184820360a08601526120ff828261202d565b91505060c083015184820360c0860152612119828261202d565b91505060e083015184820360e0860152612133828261202d565b91505061010083015184820361010086015261214f828261202d565b91505061012083015184820361012086015261216b828261202d565b915050610140830151848203610140860152612187828261202d565b9150508091505092915050565b60006121a08383612066565b905092915050565b6000602082019050919050565b60006121c082611fa1565b6121ca8185611fac565b9350836020820285016121dc85611fbd565b8060005b8581101561221857848403895281516121f98582612194565b9450612204836121a8565b925060208a019950506001810190506121e0565b50829750879550505050505092915050565b6000602082019050818103600083015261224481846121b5565b905092915050565b6000604051905090565b600080fd5b600080fd5b600080fd5b600080fd5b7f4e487b7100000000000000000000000000000000000000000000000000000000600052604160045260246000fd5b6122a28261201c565b810181811067ffffffffffffffff821117156122c1576122c061226a565b5b80604052505050565b60006122d461224c565b90506122e08282612299565b919050565b600067ffffffffffffffff821115612300576122ff61226a565b5b6123098261201c565b9050602081019050919050565b82818337600083830152505050565b6000612338612333846122e5565b6122ca565b90508281526020810184848401111561235457612353612265565b5b61235f848285612316565b509392505050565b600082601f83011261237c5761237b612260565b5b813561238c848260208601612325565b91505092915050565b6000806000606084860312156123ae576123ad612256565b5b600084013567ffffffffffffffff8111156123cc576123cb61225b565b5b6123d886828701612367565b935050602084013567ffffffffffffffff8111156123f9576123f861225b565b5b61240586828701612367565b925050604084013567ffffffffffffffff8111156124265761242561225b565b5b61243286828701612367565b9150509250925092565b61244581611e31565b811461245057600080fd5b50565b6000813590506124628161243c565b92915050565b60006020828403121561247e5761247d612256565b5b600061248c84828501612453565b91505092915050565b600082825260208201905092915050565b60006124b182611fcd565b6124bb8185612495565b93506124cb818560208601611fe9565b6124d48161201c565b840191505092915050565b6000610160820190506124f5600083018e611e97565b8181036020830152612507818d6124a6565b9050818103604083015261251b818c6124a6565b9050818103606083015261252f818b6124a6565b90508181036080830152612543818a6124a6565b905081810360a083015261255781896124a6565b905081810360c083015261256b81886124a6565b905081810360e083015261257f81876124a6565b905081810361010083015261259481866124a6565b90508181036101208301526125a981856124a6565b90508181036101408301526125be81846124a6565b90509c9b505050505050505050505050565b6125d981611e85565b81146125e457600080fd5b50565b6000813590506125f6816125d0565b92915050565b60008060008060008060008060008060006101608c8e03121561262257612621612256565b5b60006126308e828f016125e7565b9b505060208c013567ffffffffffffffff8111156126515761265061225b565b5b61265d8e828f01612367565b9a505060408c013567ffffffffffffffff81111561267e5761267d61225b565b5b61268a8e828f01612367565b99505060608c013567ffffffffffffffff8111156126ab576126aa61225b565b5b6126b78e828f01612367565b98505060808c013567ffffffffffffffff8111156126d8576126d761225b565b5b6126e48e828f01612367565b97505060a08c013567ffffffffffffffff8111156127055761270461225b565b5b6127118e828f01612367565b96505060c08c013567ffffffffffffffff8111156127325761273161225b565b5b61273e8e828f01612367565b95505060e08c013567ffffffffffffffff81111561275f5761275e61225b565b5b61276b8e828f01612367565b9450506101008c013567ffffffffffffffff81111561278d5761278c61225b565b5b6127998e828f01612367565b9350506101208c013567ffffffffffffffff8111156127bb576127ba61225b565b5b6127c78e828f01612367565b9250506101408c013567ffffffffffffffff8111156127e9576127e861225b565b5b6127f58e828f01612367565b9150509295989b509295989b9093969950565b6000806040838503121561281f5761281e612256565b5b600083013567ffffffffffffffff81111561283d5761283c61225b565b5b61284985828601612367565b925050602083013567ffffffffffffffff81111561286a5761286961225b565b5b61287685828601612367565b9150509250929050565b60008115159050919050565b61289581612880565b82525050565b60006020820190506128b0600083018461288c565b92915050565b6000602082840312156128cc576128cb612256565b5b60006128da848285016125e7565b91505092915050565b7f4e487b7100000000000000000000000000000000000000000000000000000000600052602260045260246000fd5b6000600282049050600182168061292a57607f821691505b6020821081141561293e5761293d6128e3565b5b50919050565b7f4e487b7100000000000000000000000000000000000000000000000000000000600052601160045260246000fd5b600061297e82611e31565b915061298983611e31565b92508282101561299c5761299b612944565b5b828203905092915050565b60006129b282611e31565b91506129bd83611e31565b9250827fffffffffffffffffffffffffffffffffffffffffffffffffffffffffffffffff038211156129f2576129f1612944565b5b828201905092915050565b7f4e487b7100000000000000000000000000000000000000000000000000000000600052603260045260246000fd5b6000612a3782611e31565b91507fffffffffffffffffffffffffffffffffffffffffffffffffffffffffffffffff821415612a6a57612a69612944565b5b600182019050919050565b7f4e487b7100000000000000000000000000000000000000000000000000000000600052603160045260246000fd5b600081905092915050565b6000612aba82611fcd565b612ac48185612aa4565b9350612ad4818560208601611fe9565b80840191505092915050565b6000612aec8284612aaf565b915081905092915050565b7f4f776e61626c653a206e6577206f776e657220697320746865207a65726f206160008201527f6464726573730000000000000000000000000000000000000000000000000000602082015250565b6000612b53602683612495565b9150612b5e82612af7565b604082019050919050565b60006020820190508181036000830152612b8281612b46565b9050919050565b7f4f776e61626c653a2063616c6c6572206973206e6f7420746865206f776e6572600082015250565b6000612bbf602083612495565b9150612bca82612b89565b602082019050919050565b60006020820190508181036000830152612bee81612bb2565b905091905056fea26469706673582212205437ee3aaeab34cf4868ef24df640c76310eff1541b15abb7051c5af4698e16c64736f6c63430008090033",
  "devdoc": {
    "kind": "dev",
    "methods": {
      "owner()": {
        "details": "Returns the address of the current owner."
      },
      "renounceOwnership()": {
        "details": "Leaves the contract without owner. It will not be possible to call `onlyOwner` functions anymore. Can only be called by the current owner. NOTE: Renouncing ownership will leave the contract without an owner, thereby removing any functionality that is only available to the owner."
      },
      "transferOwnership(address)": {
        "details": "Transfers ownership of the contract to a new account (`newOwner`). Can only be called by the current owner."
      }
    },
    "version": 1
  },
  "userdoc": {
    "kind": "user",
    "methods": {},
    "version": 1
  },
  "storageLayout": {
    "storage": [
      {
        "astId": 7,
        "contract": "contracts/Report.sol:Report",
        "label": "_owner",
        "offset": 0,
        "slot": "0",
        "type": "t_address"
      },
      {
        "astId": 167,
        "contract": "contracts/Report.sol:Report",
        "label": "reports",
        "offset": 0,
        "slot": "1",
        "type": "t_array(t_struct(DeathReport)163_storage)dyn_storage"
      },
      {
        "astId": 169,
        "contract": "contracts/Report.sol:Report",
        "label": "manager",
        "offset": 0,
        "slot": "2",
        "type": "t_address"
      },
      {
        "astId": 172,
        "contract": "contracts/Report.sol:Report",
        "label": "players",
        "offset": 0,
        "slot": "3",
        "type": "t_array(t_address)dyn_storage"
      }
    ],
    "types": {
      "t_address": {
        "encoding": "inplace",
        "label": "address",
        "numberOfBytes": "20"
      },
      "t_array(t_address)dyn_storage": {
        "base": "t_address",
        "encoding": "dynamic_array",
        "label": "address[]",
        "numberOfBytes": "32"
      },
      "t_array(t_struct(DeathReport)163_storage)dyn_storage": {
        "base": "t_struct(DeathReport)163_storage",
        "encoding": "dynamic_array",
        "label": "struct Report.DeathReport[]",
        "numberOfBytes": "32"
      },
      "t_string_storage": {
        "encoding": "bytes",
        "label": "string",
        "numberOfBytes": "32"
      },
      "t_struct(DeathReport)163_storage": {
        "encoding": "inplace",
        "label": "struct Report.DeathReport",
        "members": [
          {
            "astId": 142,
            "contract": "contracts/Report.sol:Report",
            "label": "recipient",
            "offset": 0,
            "slot": "0",
            "type": "t_address"
          },
          {
            "astId": 144,
            "contract": "contracts/Report.sol:Report",
            "label": "name",
            "offset": 0,
            "slot": "1",
            "type": "t_string_storage"
          },
          {
            "astId": 146,
            "contract": "contracts/Report.sol:Report",
            "label": "dateOfDeath",
            "offset": 0,
            "slot": "2",
            "type": "t_string_storage"
          },
          {
            "astId": 148,
            "contract": "contracts/Report.sol:Report",
            "label": "timeOfDeath",
            "offset": 0,
            "slot": "3",
            "type": "t_string_storage"
          },
          {
            "astId": 150,
            "contract": "contracts/Report.sol:Report",
            "label": "placeOfDeath",
            "offset": 0,
            "slot": "4",
            "type": "t_string_storage"
          },
          {
            "astId": 152,
            "contract": "contracts/Report.sol:Report",
            "label": "city",
            "offset": 0,
            "slot": "5",
            "type": "t_string_storage"
          },
          {
            "astId": 154,
            "contract": "contracts/Report.sol:Report",
            "label": "postalCode",
            "offset": 0,
            "slot": "6",
            "type": "t_string_storage"
          },
          {
            "astId": 156,
            "contract": "contracts/Report.sol:Report",
            "label": "country",
            "offset": 0,
            "slot": "7",
            "type": "t_string_storage"
          },
          {
            "astId": 158,
            "contract": "contracts/Report.sol:Report",
            "label": "province",
            "offset": 0,
            "slot": "8",
            "type": "t_string_storage"
          },
          {
            "astId": 160,
            "contract": "contracts/Report.sol:Report",
            "label": "medicalCauseOfDeath",
            "offset": 0,
            "slot": "9",
            "type": "t_string_storage"
          },
          {
            "astId": 162,
            "contract": "contracts/Report.sol:Report",
            "label": "meansOfDeath",
            "offset": 0,
            "slot": "10",
            "type": "t_string_storage"
          }
        ],
        "numberOfBytes": "352"
      }
    }
  }
}